:020000040800F2
:10000000F0050020D5000008212200086F2000081C
:1000100000000000000000000000000000000000E0
:100020000000000000000000000000002B2200087B
:100030000000000000000000292200082D22000816
:10004000E7000008E7000008E7000008E7000008F4
:10005000E7000008E7000008E7000008E7000008E4
:10006000E7000008E7000008E7000008E7000008D4
:10007000E7000008E7000008E7000008E7000008C4
:10008000E7000008B522000800000000E7000008B3
:10009000E7000008E7000008E7000008E7000008A4
:1000A000E7000008E7000008E7000008D929000879
:1000B000E700000800000000E7000008044885464B
:1000C00000F06CFA0048004751360008C046C046B0
:1000D000F00500200448804704480047FEE7FEE79B
:1000E000FEE7FEE7FEE7FEE7B3220008BD000008DA
:1000F00030B50B46014600202022012409E00D46C0
:10010000D5409D4205D31D469540491B2546954047
:1001100040191546521E002DF1DC30BD70B500248B
:100120002546002801DA01244042002901DA012590
:100130004942FFF7DDFFAC4200D04042002C00D026
:10014000494270BDF0B51FB40646002082B0054696
:100150004024019100901BE0019922460F46304651
:1001600000F020F8049A059B801A994110D310469C
:100170001946224600F039F8361A8F410197224677
:1001800001200021009F00F030F838184D41009008
:100190002046641E0028DFDC019B00982946324679
:1001A00007B0F0BD10B5202A04DB0846203AD04045
:1001B000002110BD0B46D340D0402024A21A91400C
:1001C0000843194610BDD2B201E00270401C491E1E
:1001D000FBD270470022F6E710B513460A460446E4
:1001E0001946FFF7F0FF204610BD10B5202A04DBAA
:1001F0000146203A9140002010BD914020239C1AD6
:100200000346E3401943904010BD0000F0B5074697
:100210000846584087B0C00F049048000E46590069
:1002200040084908BC1A884105D2384631461E4666
:1002300017460B4602465800400810434DD0300D7B
:10024000039040055900400D490D0590401A029059
:10025000402873DA18030121000B090508430190B7
:1002600004980092002806D01146019A49420020C5
:10027000904100910190029840210A1A019900983A
:10028000FFF7B3FF05460C466B4607CB00F098F925
:10029000C0197141039A0E0D0023D71756401A4614
:1002A0007A40164344D0049A002A2DD0029A012A9B
:1002B000039A15DC1205C01A914101263605001C6F
:1002C0007141D20F059ED2070093019202962A46F1
:1002D000234600F095F907B0F0BD38463146FAE7FD
:1002E0001605234A0F46B218C01AB7410121090565
:1002F000001C4F4100187F41114618187941E20F48
:1003000010436D19644113E0E2076D08154364085A
:10031000C2071443039A01261205C01A91413605FB
:10032000001C7141CE07400830434908C0185141B4
:100330002A46234600F057F9CDE7FFE7049801224B
:100340004000C117121A00238B4104983146C4178C
:10035000381AA141EEE730B40124E407634030BC11
:1003600054E730B40124E407614030BC4EE700009C
:100370000000E0FFF0B51FB488B00B990998002485
:1003800048400999C00F490049080991C0070B99D5
:100390000090490049080B9109990898A64608431E
:1003A0001CD00B990A98084318D0099801244000E2
:1003B000420D4800410D099824050003000B20431D
:1003C00009900B980003000B20430B9050181C4918
:1003D0004018002201901446104605E00020014616
:1003E0000DB0F0BD032801DA034600E003239C466C
:1003F000C11A0AAE0AE05F0008ADED5B4F00F75B83
:100400007D430027AA187C41491C5B1E6145F2DD33
:10041000410004AB5A522104120C0A43240C401C24
:100420000828DFDB01980290009970460191009046
:10043000059B049A0799069800F0E2F8D0E70000BF
:100440000DFCFFFFF0B50C465C4085B0E40FE407FF
:1004500003944C000026640859009446490802465B
:100460000296224321D062460A431ED06200570DF5
:100470004A000E032303550D012402462C4924058E
:10048000781B1B0B360B4018234326436146009014
:100490001C46501AB44103D30098401C009002E05F
:1004A000921800985B41002803DA0020014605B04D
:1004B000F0BD0020012109050746864611E064468B
:1004C0001D46141BB54106D36546521BB341744605
:1004D00007430C43A646CD07400849082843921815
:1004E0005B4105460D43EAD11046184313D06046E0
:1004F000194650407140084306D06046101AB34177
:1005000006D20122002306E000220123DB0702E0DD
:100510000122D2435310009874460105381C6141F2
:10052000029C039D0019694100F05DF8BFE70000DF
:10053000FD0300004A0009030123090B1B051943B1
:100540000A4B10B5520D9A4202DA0020014610BD46
:10055000064B34339A4203DC9A1AFFF723FE10BD90
:10056000034BD218FFF741FE10BD0000FF0300004F
:10057000CDFBFFFF10B5002904DB0124E407404256
:100580008C412146002B04DB1C460123DB07524231
:10059000A341994200D1904210BD0000064C0125B4
:1005A000064E05E0E36807CC2B430C3C984710341B
:1005B000B442F7D3FFF786FD74370008943700087C
:1005C00010B5202A06DBCB170846203A1041C11788
:1005D0000B4306E00B461341D0402024A21A914061
:1005E0000843194610BD10B5002B08DA0024401C42
:1005F000614192185B411A4301D14008400010BD8F
:10060000F0B51FB482B005460C0003D0084602F0D6
:1006100011FA02E002F00EFA203002460090214664
:100620002846FFF7E2FD049B059A04460F4618434F
:100630001143084314D0184610431BD000984021A2
:100640000A1A18460599FFF7ADFD05460E46009AB1
:1006500005990498FFF7C9FD084305D0012004E07F
:100660002046394607B0F0BD0020C11705430E43B0
:100670002C43374300990E986305401A7905E40A24
:1006800000220C43FD0A0A3002D500200146E9E7AA
:100690000105101969410C9C0D9D00196941FFF776
:1006A000A2FFDFE77047000010B50446FF200D49A8
:1006B000087008464078204348700020C870052123
:1006C000084800F013F8074908716423052206481A
:1006D00001F04BFCFF2205320249034801F0E9F921
:1006E00010BD00001C0000206C01002010B5024667
:1006F0000023012004E0145CE418E3B2441CE0B2DF
:100700004C1E8442F7DC184610BD000070B544480A
:10071000407901287DD10025002400214048417105
:10072000FF380138407800023E4989780843054681
:10073000012D06D0022D2CD0032D52D0042D62D1D4
:100740005CE038480479C078012821D1002C06D01B
:10075000012C0AD0022C0ED0032C18D111E000225B
:100760001021314800F049FA11E0002220212E48E2
:1007700000F043FA0BE0002240212B4800F03DFA44
:1007800005E000228021284800F037FA00BF00BFB2
:100790003DE024480479C078012821D1002C06D0FE
:1007A000012C0AD0022C0ED0032C18D111E001220A
:1007B00010211D4800F021FA11E0012220211A48E1
:1007C00000F01BFA0BE001224021174800F015FA57
:1007D00005E001228021144800F00FFA00BF00BF9D
:1007E00015E0022002F06CFE0221012002F07CFEE6
:1007F0000C49091D0DA002F09BFF00BF0C480078BA
:1008000001F03CFF00BFC020FFF74EFF00BF00BF5C
:1008100000BFFF2205320349064801F04AF970BDC6
:100820001C0100201C000020000800482573000067
:10083000000000206C01002010B51148007901284B
:100840001DD100210E480171C188FF380138FFF722
:100850004DFF0B49C988491E0A4A515C88420BD199
:1008600010460078FF2803D101210548417106E0B8
:10087000A020FFF719FF02E0E020FFF715FF10BDF1
:100880001C0100201C000020F8B5002400250026D3
:10089000002700BF09E00120A84081B21B4800F0FA
:1008A00099F969464855681CC5B2042DF3DB00BFB1
:1008B0001748005D6946095D884217D01448005DFD
:1008C000002813D0002C06D0012C06D0022C06D014
:1008D000032C08D105E0012707E0022705E00327E4
:1008E00003E0042701E0FF2700BF00BF601CC4B283
:1008F000042CDDDB002605E06846805D0449885550
:10090000701CC6B2042EF7DB3846F8BD000800485C
:100910000800002001462120405C022808D0042065
:10092000886300BF00222020425400BF012070478E
:10093000086800680E2290430A6810600868006822
:10094000400840000A68106001200A6C9040CA6BA1
:10095000506001222120425400BF00222020425436
:1009600000BF0020E3E770B5044600252120005DAC
:10097000022803D00420A06301251EE0206800683F
:100980000E21884321680860206800684008400004
:10099000216808600120216C8840E16B48600121DA
:1009A0002120015500BF00212020015500BF606BB0
:1009B000002802D02046616B8847284670BD0000A1
:1009C00070B5044600F020F906462546681C00284C
:1009D00002D0054800782D1800BF00F015F9801BE3
:1009E000A842FAD370BD00001400002078B5034679
:1009F0000022DDE0012696400C683440002C7DD0BA
:100A00004D68012D08D04D68022D05D04D68112D7F
:100A100002D04D68122D18D1986856000325B540B4
:100A20000646AE4330465600CD68B5402843986030
:100A30005868012595400646AE43304610264D685D
:100A400035402D09954028435860D8685600032545
:100A5000B5400646AE43304656008D68B540284343
:100A6000D8604D68022D02D04D68122D15D1D508E1
:100A7000AE001D462035A8595507EE0E0F25B5408E
:100A80000646AE4330465607F60E0D69B54028437C
:100A9000D508AD001E462036705118685600032553
:100AA000B5400646AE4330460D79AD07AD0F560052
:100AB000B54028431860012636074D683540B542D9
:100AC00075D100BF3D4DAD69012635433B4EB56143
:100AD0003546AD69ED07ED0F009500BF00BF384DFD
:100AE0009608B600A85995072E0F0F25B540064663
:100AF000AE4330460925ED06AB4200E057E001D198
:100B000000250FE02F4DAB4201D101250AE02E4D0B
:100B1000AB4201D1022505E02C4DAB4201D10325AA
:100B200000E005259607360FB5402843244D96086A
:100B3000B600A851264D28680546A543284601263B
:100B400036044D683540B54202D105462543284656
:100B50001F4D286068680546A5432846012676048F
:100B60004D683540B54202D1054625432846184D0B
:100B70006860A8680546A5432846012636054D68E5
:100B80003540B54202D1054625432846104DA860A0
:100B9000E8680546A5432846012676054D68354098
:100BA000B54202D1054625432846094DE860521C4E
:100BB0000D68D540002D00D01CE778BD0010024024
:100BC000080001400004004800080048000C0048EC
:100BD00000040140024613690B40002B01D00120A4
:100BE00000E00020704710B5426913460B401B041B
:100BF0000C4694432343836110BD002A01D08161D8
:100C000000E0816270470000014800687047000002
:100C10000C00002003480068034909784018014986
:100C2000086070470C0000201400002010B5064832
:100C300000681021084304490860002000F006F80D
:100C400000F02EF8002010BD0020024070B50446D0
:100C5000104801787D20C000FFF74AFA0646314669
:100C60000D480068FFF744FA054600F01FFD002814
:100C700001D0012070BD042C07D200222146501E55
:100C800000F03CF80548046001E00120F2E7002094
:100C9000F0E70000140000201800002010000020E1
:100CA00008B500BF0D488069012108430B498861E0
:100CB00008468069C007C00F009000BF00BF00BF9A
:100CC0000846C069090408430449C8610846C06968
:100CD00009040840009000BF00BF08BD001002409A
:100CE0000146002905DBCB06DB0E01229A40024BB0
:100CF0001A6000BF7047000000E100E070B50446D4
:100D00000D4616462946204601F0C4FE70BD00007F
:100D1000F8B5044600260025012109042068084092
:100D200088427AD100275248C06909030840002848
:100D30000DD100BF4E48C06908434D49C8610846FF
:100D4000C06909040840009000BF00BF012749485E
:100D50000068FF2101310840002816D1454800688D
:100D6000084344490860FFF74FFF064606E0FFF7D7
:100D70004BFF801B642801D90320F8BD3D48006863
:100D8000FF21013108400028F1D03948006A0321D1
:100D9000090208400546002D2DD060680840A84291
:100DA00029D03348006A884305463148006A01214A
:100DB000090408432E4908620846006A0121090413
:100DC00088432B49086208460562E807C00F0028DF
:100DD00011D0FFF719FF064607E0FFF715FF801B4C
:100DE0002549884201D90320C7E72148006A02212A
:100DF00008400028F1D01E48006A032109028843F8
:100E0000616808431A490862012F05D10846C06984
:100E1000090488431649C86100BF2078C007C00F85
:100E2000002807D01248006B80088000A1680843A2
:100E30000F490863202120680840202807D10C486A
:100E4000006B10218843E1680843094908630121C8
:100E5000890220680840884207D10548006B40217C
:100E600088432169084302490863002085E70000A0
:100E7000001002400070004088130000704700001E
:100E800070B504460D46002C01D1012070BD5248BA
:100E90000068C007C00FA8420ED24F480068400843
:100EA000400028434C49086008460068C007C00F4E
:100EB000A84201D00120E9E7022120680840022869
:100EC00014D1042120680840042807D14348406811
:100ED0000721090288434018404948603F4840685C
:100EE000F0218843A16808433C4948602078C00746
:100EF000C00F00283BD06068012808D1374800683F
:100F0000012149040840002815D10120BEE760688E
:100F1000022808D13148006801214906084000280C
:100F200009D10120B2E72D480068022108400028BD
:100F300001D10120AAE72948406880088000616843
:100F4000084326494860FFF75FFE064607E0FFF7C3
:100F50005BFE801B2249884201D9032096E71F4887
:100F600040680C210840616889008842EFD11A4826
:100F70000068C007C00FA8420ED917480068400893
:100F8000400028431449086008460068C007C00FA5
:100F9000A84201D0012079E70421206808400428F4
:100FA00008D10E484068072109028843E1680843D8
:100FB0000A49486000F03CF808494968F0221140AD
:100FC0000909084A515CC840074908600020FFF73A
:100FD0003DFE00205AE700000020024000100240C1
:100FE000881300005B3700081800002003480068E1
:100FF0000121C904084301490860704700100240FC
:1010000001480068704700001800002000B5FFF795
:10101000F7FF05494968072212021140090A034AED
:10102000515CC84000BD0000001002406B37000852
:10103000F0B589B027A001460EC9C06805AC0EC442
:10104000089028A001460EC9C06801AC0EC40490E7
:101050000024002500270026002000902548446831
:101060000C20204000282DD0042802D0082828D1A8
:1010700002E02148009028E00F2080042040800CEE
:1010800005A90E5C1B48C06A0007000F01A90D5C92
:101090000120000420400121090488420AD12A4687
:1010A000002315481946FFF74DF8314601F0D9FCE9
:1010B000074604E01148314601F0D3FC074600978B
:1010C00003E000BF0C48009000BF00BF009809B0CB
:1010D000F0BD000002030405060708090A0B0C0D09
:1010E0000E0F10100102030405060708090A0B0C75
:1010F0000D0E0F100010024000127A0000093D0092
:1011000010B50648806880210840802804D1FFF788
:10111000B5FE80200149887210BD00000010024019
:10112000FEB50446002C01D10120FEBD2078C00789
:10113000C00F002871D0FC4840680C2108400428EA
:101140000BD0F94840680840082812D1F64840689A
:1011500001210904084088420BD1F34800680121AD
:101160004904084000286BD06068002868D101203D
:10117000DBE700BF6068012807D1EB480068012168
:1011800009040843E849086031E0606800280ED18E
:10119000E5480068012109048843E34908600846DE
:1011A0000068012189048843DF4908601FE0606806
:1011B00005280ED1DC480068012189040843DA497A
:1011C000086008460068012109040843D649086000
:1011D0000DE0D5480068012109048843D249086020
:1011E00008460068012189048843CF49086000BF90
:1011F0006068002812D0FFF707FD054606E0FFF7FC
:1012000003FD401B642801D903208EE7C64800680F
:101210000121490408400028F1D011E0FFF7F4FC57
:10122000054606E0FFF7F0FC401B642801D90320C7
:101230007BE7BD4800680121490408400028F1D13E
:10124000022120680840022861D1B74840680C217B
:10125000084000280BD0B4484068084008281BD13B
:10126000B1484068012109040840002814D1AE4863
:10127000006802210840002804D0E068012801D05D
:10128000012052E7A8480068F82188432169C90075
:101290000843A54908603AE0E068002820D0A24849
:1012A000006801210843A0490860FFF7ADFC05462E
:1012B00006E0FFF7A9FC401B022801D9032034E710
:1012C00099480068022108400028F2D0964800683A
:1012D000F82188432169C90008439349086016E052
:1012E00091480068400840008F490860FFF78CFC77
:1012F000054606E0FFF788FC401B022801D90320C1
:1013000013E789480068022108400028F2D108212B
:1013100020680840082831D1E069002817D08248A9
:10132000406A0121084380494862FFF76DFC054689
:1013300006E0FFF769FC401B022801D90320F4E610
:101340007948406A022108400028F2D016E0764829
:10135000406A4008400074494862FFF755FC054662
:1013600006E0FFF751FC401B022801D90320DCE610
:101370006D48406A022108400028F2D1042120680B
:101380000840042873D1002001906748C06989068D
:10139000084000280ED100BF6348C0690843624975
:1013A000C8610846C06909040840009000BF00BF3A
:1013B000012001905D480068FF21013108400028AC
:1013C00016D15A480068084358490860FFF71CFCCA
:1013D000054606E0FFF718FC401B642801D90320EE
:1013E000A3E652480068FF21013108400028F1D0EF
:1013F00000BFA068012806D14B48006A01210843BC
:10140000494908622BE0A06800280CD14648006AD0
:1014100040084000444908620846006A04218843A5
:10142000414908621BE0A06805280CD13E48006ACB
:10143000042108433C4908620846006A0121084328
:10144000394908620BE03848006A400840003649D4
:1014500008620846006A042188433349086200BFD5
:10146000A068002813D0FFF7CFFB054608E02BE06B
:10147000FFF7CAFB401B2E49884201D9032054E6DE
:101480002948006A022108400028F1D011E0FFF746
:10149000BBFB054607E0FFF7B7FB401B244988422A
:1014A00001D9032041E62048006A022108400028B3
:1014B000F1D10198012806D11B48C0690121090713
:1014C00088431949C86100BF1021206808401028CE
:1014D00060D1606901282DD11348406B0421084375
:1014E000114948630846406B012108430E4948638F
:1014F000FFF78AFB054606E0FFF786FB401B022844
:1015000001D9032011E60848406B02210840002859
:10151000F2D00548406BF8218843A169C90008430F
:101520000149486336E000000010024000700040AE
:10153000881300006069401D00280FD15A48406B95
:1015400004218843584948630846406BF821884382
:10155000A169C9000843544948631BE05248406BE5
:1015600004210843504948630846406B4008400046
:101570004863FFF749FB054606E0FFF745FB401BC4
:10158000022801D90320D0E54748406B02210840DA
:101590000028F2D1206A00284FD0434840680C212F
:1015A0000840082864D0206A022847D13E480068D5
:1015B0000121090688433C490860FFF725FB0546E1
:1015C00006E0FFF721FB401B022801D90320ACE510
:1015D000354800680121490608400028F1D100BFC4
:1015E0003148C06A00090001E16A08432E49C86217
:1015F000616AA06A08432C4949683D22120491435C
:1016000008432949486000BF0846006801210906CF
:10161000084325490860FFF7F7FA054606E0FFF79B
:10162000F3FA401B022801D903207EE51E4800681A
:101630000121490608400028F1D033E01A4800682B
:1016400001210906884318490860FFF7DDFA0546BD
:1016500006E0FFF7D9FA401B022801D9032064E510
:10166000114800680121490608400028F1D119E01D
:10167000206A012800D158E50B484668C76A012056
:1016800000043040616A88420AD13907090FE06AD4
:10169000814205D10F2080043040A16A884201D0E8
:1016A000012042E5002040E50010024070B50446EC
:1016B0002546681E0949884201D901200CE0681EB0
:1016C000074948610321081F01F0E4F9002004499B
:1016D000886107200861002070BD0000FFFFFF0047
:1016E00000E000E07047704730B502460B4600BF8F
:1016F0003C20805C012801D1022030BD01253C2026
:10170000855400BF02253D20855410684468106848
:10171000816870252046A843044618680443106871
:101720004460114D1068A8420CD00125AD07106827
:10173000A84207D00D4D1068A84203D00C4D106888
:10174000A84207D180250846A843014658680143AE
:101750001068816001253D20855400BF00253C2094
:10176000855400BF0020C8E7002C01400004004061
:101770000040014010B50446002C01D1012010BDED
:101780003D20005D002805D100213C200155204668
:1017900000F022F802213D200155211D206800F0B3
:1017A00091FD01214620015500BF3E2001553F20FB
:1017B0000155402001554120015500BF00BF422086
:1017C000015543200155442001554520015500BFD6
:1017D0003D2001550020D2E738B504460D49206868
:1017E000884215D100BF0C48C069102108430A493E
:1017F000C8610846C06910210840009000BF00BFC2
:10180000002211461120FFF779FA1120FFF768FA3C
:1018100038BD0000001000400010024001463D208D
:10182000405C012801D00120704702233D20435431
:101830000868C068012318430B68D860124B086819
:1018400098420CD001239B070868984207D00F4BA1
:101850000868984203D00E4B086898420CD108687B
:1018600080684207520F062A0CD0086800680123DE
:1018700018430B68186005E00868006801231843E6
:101880000B6818600020CFE7002C014000040040E6
:1018900000400140704710B50446206800690221ED
:1018A0000840400800281CD02068C0680840400854
:1018B000002816D0481F2168086101202077206881
:1018C00080698007800F002803D02046FFF7E2FFE1
:1018D00005E0204600F0C3F8204600F0C1F80020E3
:1018E00020772068006904210840800800281DD066
:1018F0002068C06808408008002817D0C8432168C5
:1019000008610220207720688069032109020840CD
:10191000002803D02046FFF7BDFF05E0204600F079
:101920009EF8204600F09CF800202077206800698F
:1019300008210840C00800281CD02068C068084062
:10194000C008002816D0C843216808610420207709
:101950002068C0698007800F002803D02046FFF769
:1019600099FF05E0204600F07AF8204600F078F86C
:101970000020207720680069102108400009002815
:101980001DD02068C06808400009002817D0C8434F
:1019900021680861082020772068C06903210902B6
:1019A0000840002803D02046FFF774FF05E02046DA
:1019B00000F055F8204600F053F80020207720680A
:1019C0000069C007C00F01214840484000280CD0E2
:1019D0002068C068084048404840002805D0C81E1C
:1019E00021680861204600F03DF8206800698021E8
:1019F0000840C00900280BD02068C0680840C00912
:101A0000002805D0C843216808612046FFF76AFE18
:101A10002068006940210840800900280BD0206818
:101A2000C06808408009002805D0C84321680861C3
:101A3000204600F03DF82068006920210840400958
:101A400000280BD02068C06808404009002805D055
:101A5000C843216808612046FFF745FE10BD704766
:101A60007047000010B504460E480068401C0D4940
:101A7000086032210B480068FEF750FB00290FD1A7
:101A8000084800687D214901884203DA012006499F
:101A9000087005E003200449087004480149086003
:101AA00010BD000004000020010000209F0F000076
:101AB0007047F8B504460D461746E06F202838D128
:101AC000002D01D0002F01D10120F8BD0121090313
:101AD000A068884208D12069002805D1E807C00F16
:101AE000002801D00120F0E700BF7420005D01282C
:101AF00001D10220E9E701217420015500BF012036
:101B000020663A462946204600F0AEFE0646002EE4
:101B10000DD1206E012809D11020216808622068AB
:101B20000068102108432168086000E00126304663
:101B3000CBE70220C9E700000123024A1371D180DC
:101B4000704700001C01002070477047FEB5044636
:101B50002068C5692068066820688768BB482840F7
:101B60000290029800280ED12020284000280AD098
:101B700020203040002806D0606E002802D0204689
:101B8000616E8847FEBD029800287DD0F807C00F1F
:101B9000002803D1AE4830400028F6D0E807C00F37
:101BA00000280DD0FF2001303040002808D001204F
:101BB00021680862802000590121084380210851D2
:101BC0000220284000280CD0F807C00F002808D0B9
:101BD00002202168086280200059042108438021E6
:101BE00008510420284000280CD0F807C00F002816
:101BF00008D004202168086280200059022108438F
:101C00008021085108202840002810D02020304092
:101C1000002803D1F807C00F002808D00820216849
:101C200008628020005908210843802108510120C2
:101C3000C002284000280ED0012080063040002835
:101C400009D00120C00221680862802000592021AB
:101C500008438021085180200059002848D02020C6
:101C60002840002809D020203040002805D0606E90
:101C7000002802D02046616E8847802000590190DC
:101C800020688068402100E033E00840402804D00C
:101C9000282101980840002824D0204600F028FC84
:101CA0002068806840210840402817D1206880685B
:101CB000884321688860206F00280BD06548216F19
:101CC0004863206FFEF74FFE002811D0206F416B54
:101CD00088470DE02046FFF738FF09E02046FFF770
:101CE00034FF05E02046FFF730FF0021802001513E
:101CF00048E7206E01287AD110202840002876D0AD
:101D000010203040002872D010202168086220681E
:101D100080684021084040283DD1206F006840681D
:101D200080B200900098002834D05820015B0098C1
:101D300081422FDD5A2100980853206F80692028A6
:101D40001FD020680068FF210131884321680860A6
:101D500020688068400840002168886020688068AA
:101D600040218843216888602020E06700202066A9
:101D7000206800681021884321680860206FFEF702
:101D8000C9FD5820025B5A20005B101A81B2204620
:101D9000FFF7D2FEF6E65820015B5A20005B081AD6
:101DA00080B200905A20005B00281ED000980028C6
:101DB0001BD020680068FF2121318843216808601A
:101DC0002068806840084000216888602020E06723
:101DD0000020206660662068006810218843216822
:101DE000086020460099FFF7A7FECBE6FFE7012039
:101DF0000005284000280CD001208005384000282C
:101E000007D001200005216808622046FFF79CFEEC
:101E1000B8E68020284000280AD0802030400028E2
:101E200006D0A06E002802D02046A16E8847A9E601
:101E300040202840002807D040203040002803D010
:101E4000204600F071FB9DE600BF9BE60F080000F6
:101E500020010004D924000810B50446002C01D14B
:101E6000012010BDA069002800D000E000BFA06FD5
:101E7000002805D1002174200155204600F02CF8DF
:101E80002420A0672068006840084000216808609E
:101E9000204600F01BFC012800D1E2E7606A002820
:101EA00002D0204600F066FA206840680921C90285
:101EB000884321684860206880682A218843216817
:101EC0008860206800680121084321680860204676
:101ED00000F0C8FAC5E7000010B586B0044614212A
:101EE00001A8FEF777F91E492068884236D100BF65
:101EF0001C4880690121890308431A498861084602
:101F00008069012189030840009000BF00BF00BF25
:101F100014484069C90008431249486108464069AD
:101F2000012149040840009000BF00BF0320400287
:101F300001900220029000200390032004900120D1
:101F4000059001A90920C006FEF750FD00221146A8
:101F50001B20FEF7D3FE1B20FEF7C2FE06B010BD0D
:101F600000380140001002407047FFB583B00446BE
:101F70000D461746A06F202876D1002D01D0002FE6
:101F800002D1012007B0F0BD01210903A0688842F9
:101F900008D12069002805D1E807C00F002801D02A
:101FA0000120EFE700BF7420005D012801D102206D
:101FB000E8E701217420015500BF00218020015174
:101FC0002120A067FEF720FE0190502007535220E9
:101FD000075301210903A068884205D12069002820
:101FE00002D10026029502E02E460020029000BF9A
:101FF00000217420015500BF21E0069800900022C6
:1020000080212046019B00F087FC002801D003209E
:10201000B8E7002E09D102980088C005C00D2168DC
:1020200008850298801C029003E0307821680885BA
:10203000761C5220005B401E81B252200153522078
:10204000005B0028D9D1069800900022402120464C
:10205000019B00F061FC002802D0032092E703E01E
:102060002020A06700208DE702208BE7704700BF8B
:10207000FEE7000000B587B0142102A8FEF7AAF819
:1020800000BF3E4840690121C90408433B494861FB
:10209000084640690121C9040840019000BF00BF03
:1020A00000BF36484069C9000843344948610846C2
:1020B0004069012189050840019000BF00BF00BFB1
:1020C0002E484069491108432C4948610846406937
:1020D000012149040840019000BF00BF0022FF21F8
:1020E00009022748FEF789FD0122F0212448FEF766
:1020F00084FD0122D1030920C006FEF77EFD2148A0
:1021000002900120039000200490059002A91C4831
:10211000FEF76CFC0F20029000200390049002A9AF
:102120001748FEF763FC6020029002200390002015
:102130000490032005900020069002A90920C00603
:10214000FEF754FCC020029012200390012004905E
:102150000320059002A90C48FEF748FC0120C003AB
:1021600002900120039000200490059002A909200C
:10217000C006FEF73BFC07B000BD000000100240A7
:1021800000080048F0FF0000001400481CB50020C3
:10219000009001900E480F4908600F4848600021E8
:1021A0000C4881600121C16000218161FFF7E2FAE2
:1021B000002801D0FEF776FA0020009001906946D1
:1021C0000448FFF791FA002801D0FEF76BFA1CBD16
:1021D0000010004024010020BF5D000010B50E4833
:1021E0000E4908604B20C001486000210B48816007
:1021F000C16001610C21416100218161C161016205
:102200000020064948620846FFF726FE002801D054
:10221000FEF748FA10BD0000003801406C010020B4
:1022200010B5FEF76DFF10BD7047704710B5FEF793
:10223000F1FC10BD00B595B0302109A8FDF7CAFF2B
:102240000020059006900790089014216846FDF73D
:10225000C1FF012009900A9002201190C103129140
:10226000C10413910021149109A8FEF759FF002819
:1022700001D0FEF717FA07200590022006900020F3
:1022800007900890012105A8FEF7FAFD002801D06B
:10229000FEF708FA01200090002002906846FEF741
:1022A00037FD002801D0FEF7FDF9FEF79FFE15B0BF
:1022B00000BD704710B50248FFF7EDFA10BD0000F1
:1022C0002401002010B50268244B984206D0012357
:1022D0009B07984202D0224B984205D170241346A6
:1022E000A3431A464B681A431C4B984212D0012351
:1022F0009B0798420ED01A4B98420BD0194B98422C
:1023000008D0194B984205D0184B984202D0184B70
:10231000984206D1032424021346A3431A46CB68ED
:102320001A4380241346A3434C6923431A46026090
:102330008B68C3620B688362084B984208D00A4BD3
:10234000984205D0094B984202D0094B984201D1DE
:102350000B6903630123436110BD0000002C0140A1
:1023600000040040002000400040014000440140C3
:1023700000480140818CC907C90F002908D00168B5
:102380004968012252049143826A114302685160F4
:102390000222416A1140022907D101684968D2032B
:1023A0009143C26A1143026851600422416A11409C
:1023B000042907D10168496812049143026B114353
:1023C000026851600822416A1140082907D101685A
:1023D000496812039143426B114302685160102215
:1023E000416A1140102907D101688968120291439E
:1023F000826B1143026891602022416A11402029BA
:1024000007D10168896812029143C26B11430268C7
:1024100091604022416A1140402915D10168496804
:1024200092039143026C114302685160012212052C
:10243000016C914208D10168496803225205914319
:10244000426C1143026851608022416A1140802928
:1024500007D10168496812039143826C11430268F5
:102460005160704738B50446002180200151FEF7C5
:10247000CBFB0546206800680821084008280BD1DE
:1024800014482B46002289040090204600F044FAAC
:10249000002801D0032038BD2068006804210840CE
:1024A00004280BD10B482B4600220905009020463A
:1024B00000F032FA002801D00320ECE72020A067CA
:1024C000E0670020206600BF00217420015500BF96
:1024D0000020E0E7FFFFFF0170B505466C6A0021B0
:1024E0005A200153522001532046FFF72EFB70BDA6
:1024F00001680968FF222132914302681160016876
:1025000089684908490002689160016E012905D176
:102510000168096810229143026811602021C16797
:10252000002101664166704710B5044620680068C6
:1025300040218843216808602020A0670020A06611
:102540002046FFF793FD10BDF8B504465C20075BFD
:10255000E06F222837D12068868C656D3046384080
:102560002880606D801C60655A20005B401E81B22F
:102570005A200153005B00282BD120680068FF21FE
:102580002131884321680860206880684008400045
:10259000216888602020E06700206066206E0128A6
:1025A0000BD12068006810218843216808605820FA
:1025B000015B2046FFF7C0FA02E02046FFF7D4FC9B
:1025C0000020206605E02068806908210843216812
:1025D0008861F8BD70B504465C20065BE06F222878
:1025E00037D12068858CF0B22840616D0870606D2D
:1025F000401C60655A20005B401E81B25A20015386
:10260000005B00282BD120680068FF21213188431E
:102610002168086020688068400840002168886060
:102620002020E06700206066206E01280BD1206822
:10263000006810218843216808605820015B20460B
:10264000FFF77AFA02E02046FFF78EFC00202066B2
:1026500005E020688069082108432168886170BD11
:1026600070B504460D460023DB432A462146024846
:10267000FFF77BFC70BD00006C010020F0B589B055
:10268000044601252846CE300019C6B2CF20059653
:10269000039504940290002000900346024606A190
:1026A000019007A800F0A0F987B2394607A8FFF704
:1026B000D7FF09B0F0BD00002563256325632563BE
:1026C000256325632563256300000000FEB50446ED
:1026D000002000902169A068084361690843E1690E
:1026E000084302902068006859490840029908434D
:1026F0002168086020684068032109038843E16875
:10270000084321684860A0690290206A0299084342
:102710000290206880680B210902884302990843CF
:102720002168886000BF4B492068884217D14A4819
:10273000006B8007800F002806D0012808D00228EF
:1027400008D0032808D101E0002607E0022605E0B2
:10275000042603E0082601E0102600BF06E03F49FA
:102760002068884201D1002600E0102600BF012128
:10277000C903E069884239D1002E06D0022E08D064
:10278000042E08D0082E0DD109E0FEF73FFC0546C7
:102790000CE0334D0AE0FEF74BFC054606E0012550
:1027A000ED0303E000250120009000BF00BF002DD5
:1027B00049D06A0063685B08D0186168FDF798FC2F
:1027C00087B2102F0FD3274887420CD825480F38DF
:1027D000384001903807400F019908430190019853
:1027E0002168C8602FE0012000902CE0002E06D068
:1027F000022E08D0042E08D0082E0DD109E0FEF7D5
:1028000005FC05460CE0164D0AE0FEF711FC0546F6
:1028100006E00125ED0303E000250120009000BF44
:1028200000BF002D0FD061684A085019FDF760FC09
:1028300087B2102F05D30B48874202D82068C760A3
:1028400001E00120009000206066A0660098FEBDB7
:10285000F369FFFF003801400010024000440040CF
:1028600000127A00FFFF000010B50346596558209A
:10287000C2525A20C2520020586600BF01242403CD
:102880009868A0420AD11869002803D11F4C5C2027
:10289000C45214E0FF245C20C45210E09868002861
:1028A0000AD11869002803D1FF245C20C45206E035
:1028B0007F245C20C45202E000245C20C45200BF8C
:1028C00000248020C4502220D86718688068012422
:1028D00020431C68A060012424039868A04205D10D
:1028E0001869002802D10A48586601E0094858666C
:1028F00000BF00247420C45400BF18680068FF247F
:10290000213420431C682060002010BDFF0100001E
:1029100049250008D5250008FFB581B004460D46BD
:1029200017460A9E4CE0701C002849D0FEF76CF94F
:102930000499401AB04201D8002E17D120680068CF
:10294000FF21A13188432168086020688068400821
:102950004000216888602020A067E06700BF002158
:102960007420015500BF032005B0F0BD2068006849
:1029700004210840002823D02068C069490208408B
:10298000C00A00281CD00846216808622068006838
:10299000FF21A131884321680860206880684008D1
:1029A0004000216888602020A067E0672021802007
:1029B000015100BF00217420015500BF0320D3E75F
:1029C0002068C0692840A84201D1012000E0002011
:1029D000B842A8D00020C7E710B50248FFF7B6F804
:1029E00010BD00006C0100200FB410B504A9074B06
:1029F00002AA039800F054F9044602A9002000F04E
:102A0000EDFC204610BC08BC04B01847DD330008BC
:102A100037B514460846064B6A46214600F040F991
:102A200004466946002000F0D9FC20463EBD000067
:102A3000DD3300082021020C01D010211046020ACB
:102A400001D010460839020901D01046091F82083A
:102A500001D01046891E420801D0881E7047081A0E
:102A60007047F8B582B28BB2040C0D0C1046584377
:102A7000002126465E43370C3604801979411646FC
:102A80006E43370C36048019794126466E43891906
:102A9000F8BD000010B5002819DB1A4A03231B02F9
:102AA000D21883089B00D2588307DC0EFF23A34073
:102AB0009A438B071B0E8407E40EA3401A43114B65
:102AC000032424021B198408A4001A5118E00E4A9A
:102AD00003071B0F083B9B089B00D2588307DC0EA3
:102AE000FF23A3409A438B071B0E8407E40EA340E9
:102AF0001A43054B0407240F083CA408A4001A51EC
:102B000010BD000000E100E01CED00E002E008C89C
:102B1000121F08C1002AFAD170477047002001E057
:102B200001C1121F002AFBD170470000F0B51FB48D
:102B300086B00998089A030D0021024314D0514829
:102B4000514A1818504305141198012810981AD0AA
:102B5000281A401C00264D4F4D49009601910490C3
:102B6000002812DA444211E01198012449A30128F7
:102B700001D11098C1430698119A84600360C26025
:102B800041600BB0F0BD4042E4E70446210500205F
:102B90003F4A001C51410391029012E0E00707D028
:102BA00032463B4601990098FDF7E4FB0191009005
:102BB00032463B4610461946FDF7DCFB06460F46FB
:102BC0006410002CEAD10498039B0028029A09990A
:102BD000089806DAFDF7CEFB019B009AFDF7CAFBC9
:102BE00005E0FDF72FFC019B009AFDF72BFC044646
:102BF0000E460022284BFDF7BDFC03D80020C04341
:102C0000014607E00022254B20463146FDF7FEFA3B
:102C1000FDF790FC102409E0002C0ADB0A220023B7
:102C2000FDF790FA079B30321A55641E02460A439C
:102C3000F2D11122641C079B121B1C19119B012B42
:102C400003D0012308430ED10AE0084304D0112029
:102C500010900020119077E71098151A6D1E0BE068
:102C60001098824202DD00236D1C03E0824201DAEB
:102C700000236D1E002BEED0069811998260C16072
:102C800030C07EE701FCFFFF104D00000000144043
:102C90000000F03F300000000000F0430000E03F83
:102CA000FFB597B0064600251BE2252876D1002403
:102CB0002746F749049400E00443761C327801204B
:102CC000203A90400842F7D130782A280ED00222CC
:102CD000307801463039092916D804990A23594316
:102CE000303940181443761C0490F1E7189802C854
:102CF00004911890002904DA01204003044348425B
:102D0000049002200443761C30782E2814D104202D
:102D100004437078761C2A2809D11898761C80C83C
:102D2000189009E00A214F43303FC719761C3078CC
:102D3000014630390929F5D930786C2810D006DCE5
:102D40004C281AD068280ED06A2817D104E07428BD
:102D500013D07A2812D110E00120400504430CE082
:102D60000121090501E0032109050C437178814225
:102D700003D1012000052418761C761C30786628C3
:102D80000BD013DC58287DD009DC00287BD04528E7
:102D9000F6D04628F4D047281AD1A9E118E06328D4
:102DA00035D0642870D0652812D1A1E170286CD08C
:102DB00008DC6728F1D069287DD06E280DD06F28F7
:102DC00006D1BCE073282ED0752873D0782859D04E
:102DD0001A9A199990476D1C82E16002400F0228EF
:102DE00009D003280DD00428189801680DD00D6073
:102DF000001D189074E11898EA1701680D604A6088
:102E0000F6E7189801680D80F2E70D70F0E7189862
:102E10006A4601781172001D18900020507202A8B5
:102E20000090012005E0189802C818900020009139
:102E3000C04361070ED5002101E00199491C0191B1
:102E4000B94213DA8142F8DB019A0099895C0029C2
:102E5000F3D10BE0002101E00199491C019181426D
:102E6000FADB019A0099895C0029F5D1019904984F
:102E70001A9B471A21463846199A00F099FA4019C8
:102E8000019903E051E030E115E050E0451807E01A
:102E9000009800990078491C00911A9A1999904756
:102EA0000198401E0190401CF2D1214638461A9BE1
:102EB000199A12E137E00A20002100900191600286
:102EC000410F022907D0189A01CA1892C2179446D6
:102ED000032908D00AE01898C01DC108C90005C917
:102EE0001891944607E000B2C2179446042902D113
:102EF00040B2C1178C4600226146944506DA0A4664
:102F00000021404291418C462D2102E0210504D54B
:102F10002B216A461173012103E0E10701D0202132
:102F2000F7E7029156E00A200AE0102008E010209E
:102F300000900021042004430191082703E00820A9
:102F40000021019100906002410F022907D0189AD8
:102F500001CA189200229446032908D008E0189864
:102F6000C01DC108C90005C91891944603E080B28C
:102F7000042900D1C0B20021029121072AD531785D
:102F80000D91702906D0009A1021019B4A401A43E6
:102F900005D00EE040216A461173012108E0614628
:102FA000014306D030216A4611730D9951730221F5
:102FB0000291009A0821019B4A401A430AD16146B6
:102FC000014301D1610705D530216A461173012102
:102FD0007F1E02913178582904D02EA10E910DA99F
:102FE0000D910DE030A1F9E76146019B009AFDF7D4
:102FF000A9F80E9B8C469B5C0D9A521E0D92137085
:1030000061460143F0D10D9805A9081A20300190BE
:10301000600703D501200004844300E001270198E4
:10302000874201DD381A00E0002001990090411824
:10303000029809180498401A0490E00306D4214627
:103040001A9B199A049800F0B3F94519002706E075
:1030500003A81A9AC05D199990476D1C7F1C0298AD
:103060008742F5DBE0030CD521461A9B199A049898
:1030700000F09EF9451904E01A9A302019999047FA
:103080006D1C0099481E00900029F5DC1FE000002F
:10309000092801003031323334353637383961622E
:1030A00063646566000000003031323334353637F2
:1030B0003839414243444546000000000D980D99BF
:1030C0000078491C0D911A9A199990476D1C019925
:1030D000481E01900029F1DC4DE100F059F9451935
:1030E000761C3078002800D0DFE528461BB0F0BD04
:1030F000600700D406271898C01DC108C900486899
:103100000A680831C30FDB071891190001D09CA190
:1031100008E0210501D59BA104E0E10701D09AA1B7
:1031200000E09AA14300109130785B0865280CD02C
:1031300006DC452809D046281DD0472841D141E06A
:10314000662818D067283CD13CE00021112F01DB14
:10315000112000E0781C0191009008A911A8FFF748
:10316000E5FC139905910021119A15927F1C129884
:103170000197009150E00120C007039001200190C9
:1031800008A9009711A8FFF7D1FC139A149905928A
:103190000022119B009212981593059A0192002922
:1031A00001D0104602E0791C40180190381A01D570
:1031B000019804E04042401E0090781C0190C01B22
:1031C000029043E0012F00DA01270021112F01DDD9
:1031D000112000E038460191009008A911A8FFF7DE
:1031E000A5FC13990591119A00211298159200914E
:1031F000019721070CD40599B94201DB019900E040
:103200000191012904DD159A491E515C302906D02F
:10321000B84201DA011D05DA0121029115E0019998
:10322000491EEDE7002805DC00994118009101993D
:10323000091A03E0019A411C914200DD01910099B5
:10324000401A401C02900120C0070390200706D4BA
:1032500002990198814202DB0020C04302900020C5
:103260006946C87707AF012103980337C907884229
:1032700024D0022011902B201290039800280CDA01
:10328000404203902D20129007E00A210398FCF79A
:103290002FFF30317F1E039039701199481E119015
:1032A0000029F2DC03980028EFD1791E12980870EB
:1032B0003078202108404530BF1E387006A8C01B5A
:1032C000C01D039010980078002800D001200199BB
:1032D00041180298C0170918039809180498401A51
:1032E000401E0490E00306D421461A9B199A0498C4
:1032F00000F05EF8451910980078002803D01A9A5B
:10330000199990476D1CE00324D521461A9B199A00
:10331000049800F04DF845191CE00098002807DBE0
:1033200000990598884203DD1598405C199901E0E1
:10333000199930201A9A904700986D1C401C0090F3
:103340000298401E0290002804D11A9A2E20199942
:1033500090476D1C0199481E01900029DDDC05E0B5
:1033600038781A9A7F1C199990476D1C0399481E4A
:1033700003900029F4DC21461A9B199A0498ACE6C4
:103380002D0000002B0000002000000000000000C5
:10339000F8B5044600251E461746880404D405E007
:1033A00039462020B0476D1C641EF9D52846F8BD6B
:1033B000FFB50446002581B01E46C80301D530275D
:1033C00000E02027880404D505E038460399B0477B
:1033D0006D1C641EF9D5284605B0F0BD0A68531C63
:1033E0000B601070704700BF704710B50446002C8A
:1033F00002D0601EFDF7E4FA10BD000070B504466F
:103400000E4DA969651E302675432B46994208D397
:10341000CA1A00BF094DA86988420DD89042F9D850
:103420000AE0064D6D696D18EA1A00BF034DA869E0
:103430008842FBD99042F9D870BD000000E000E05E
:103440000120C0030149886170470000000800485E
:1034500010B51A480068FF2109048843174908601D
:1034600001208003886240108861FFF7BCFF0120C3
:10347000000312498861FFF7B6FF012000030F49DE
:103480008862FFF7B0FF012000030C498861FFF755
:10349000AAFF0A4800690005C40F0120000307497C
:1034A00088620846006855210904084303490860FA
:1034B000002C01D0012010BD0020FCE700080048CE
:1034C00070B50446012C0EDB022C0CDC21460120D9
:1034D00000F00AF8002504E02021012000F07AF82D
:1034E0006D1C142DF8DB70BD70B504460D46064802
:1034F000465D601E8019C6B2802030430146002020
:1035000000F068F870BD00005637000810B51E487E
:10351000006880B21D4940181B4908600120000363
:103520008862FFF760FF012080031749886240101E
:1035300088621E20FFF759FF022000F06DF8082076
:1035400000F06AF8022000F067F8082000F064F844
:103550002820FFF753FF002000F05EF80C2000F059
:103560005BF82820FFF74AFF002000F055F8012003
:1035700000F052F80220FFF738FF002000F04CF86E
:10358000062000F049F810BD00080048000055551D
:1035900010B5044603E0207800F005F8641C20789C
:1035A0000028F8D110BD10B504460A2C06D00C2C0A
:1035B00009D102210120FFF797FF09E00221012034
:1035C000FFF792FF04E02146012000F003F800BF5E
:1035D00000BF10BD70B505460C4600BFFFF738FFB1
:1035E0000028FBD1002D04D0012080030949886107
:1035F00003E0012080030749886201204003054958
:103600008862201100F008F82007000F00F004F88D
:1036100070BD00000008004870B505460A484069C2
:1036200084B20A4804402802044307484461FFF773
:10363000DAFE0120000304498861FFF7D4FE01206F
:1036400000030149886270BD00080048FFF00000D7
:1036500000240125FDF7EAFAFEF7ECFDFEF70AFD6E
:10366000FEF794FDFEF7BAFD2248FEF7D7F8FFF704
:103670004DFF21A000F05CF802210120FFF734FF8C
:1036800022A000F055F8FFF7DBFE31E02348007878
:10369000012804D002280FD0032824D10DE0601C9B
:1036A000C4B20A2C04DB10211D48FDF79CFA00244B
:1036B00002201A49087016E015E0012D0BD1FF22F7
:1036C000053218491848FEF7F4F901221021144870
:1036D000FDF793FA0025FDF7AFF8FDF717F8022084
:1036E0000E49087000BF00BFFDF7CEF80F49087003
:1036F000CCE700002401002050726F6A65742050EE
:103700004F52545F434F4D4D0000000053616D75A3
:10371000656C20506974746F6E0000000100002019
:10372000000800481C0000206C0100200000002060
:103730000FB400B587B009A8009001A8009A0899B5
:10374000FFF766F901A8FFF723FF0020009007B0FC
:1037500008BC04B018470000400000000000000052
:103760000000000102030406070809000000000130
:103770000203040094370008000000201C00000031
:103780000C2B0008B03700081C000020D4050000F6
:103790001C2B0008000100000000000000000000D9
:1037A00000000000040000000100000000127A0088
:04000005080000BD32
:00000001FF
